{
  "contractName": "DubaiRealEstateMarket",
  "abi": [
    {
      "inputs": [],
      "stateMutability": "nonpayable",
      "type": "constructor"
    },
    {
      "anonymous": false,
      "inputs": [
        {
          "indexed": false,
          "internalType": "string",
          "name": "propertyId",
          "type": "string"
        },
        {
          "indexed": false,
          "internalType": "uint256",
          "name": "price",
          "type": "uint256"
        },
        {
          "indexed": true,
          "internalType": "address",
          "name": "previousOwner",
          "type": "address"
        },
        {
          "indexed": true,
          "internalType": "address",
          "name": "newOwner",
          "type": "address"
        }
      ],
      "name": "OwnershipTransferred",
      "type": "event"
    },
    {
      "anonymous": false,
      "inputs": [
        {
          "indexed": false,
          "internalType": "string",
          "name": "_propertyId",
          "type": "string"
        },
        {
          "indexed": false,
          "internalType": "uint256",
          "name": "_newPrice",
          "type": "uint256"
        }
      ],
      "name": "PriceUpdated",
      "type": "event"
    },
    {
      "anonymous": false,
      "inputs": [
        {
          "indexed": false,
          "internalType": "string",
          "name": "propertyId",
          "type": "string"
        }
      ],
      "name": "PropertyActivated",
      "type": "event"
    },
    {
      "anonymous": false,
      "inputs": [
        {
          "indexed": false,
          "internalType": "string",
          "name": "propertyId",
          "type": "string"
        }
      ],
      "name": "PropertyDeactivated",
      "type": "event"
    },
    {
      "anonymous": false,
      "inputs": [
        {
          "indexed": false,
          "internalType": "string",
          "name": "propertyId",
          "type": "string"
        },
        {
          "indexed": false,
          "internalType": "uint256",
          "name": "price",
          "type": "uint256"
        },
        {
          "indexed": false,
          "internalType": "string",
          "name": "location",
          "type": "string"
        },
        {
          "indexed": true,
          "internalType": "address",
          "name": "owner",
          "type": "address"
        }
      ],
      "name": "PropertyListed",
      "type": "event"
    },
    {
      "anonymous": false,
      "inputs": [
        {
          "indexed": false,
          "internalType": "string",
          "name": "propertyId",
          "type": "string"
        },
        {
          "indexed": true,
          "internalType": "address",
          "name": "newOwner",
          "type": "address"
        }
      ],
      "name": "PropertySold",
      "type": "event"
    },
    {
      "inputs": [],
      "name": "dlrOwner",
      "outputs": [
        {
          "internalType": "address",
          "name": "",
          "type": "address"
        }
      ],
      "stateMutability": "view",
      "type": "function",
      "constant": true
    },
    {
      "inputs": [
        {
          "internalType": "string",
          "name": "",
          "type": "string"
        }
      ],
      "name": "properties",
      "outputs": [
        {
          "internalType": "string",
          "name": "propertyId",
          "type": "string"
        },
        {
          "internalType": "address",
          "name": "owner",
          "type": "address"
        },
        {
          "internalType": "uint256",
          "name": "price",
          "type": "uint256"
        },
        {
          "internalType": "string",
          "name": "location",
          "type": "string"
        },
        {
          "internalType": "bool",
          "name": "isActive",
          "type": "bool"
        }
      ],
      "stateMutability": "view",
      "type": "function",
      "constant": true
    },
    {
      "inputs": [
        {
          "internalType": "uint256",
          "name": "",
          "type": "uint256"
        }
      ],
      "name": "propertyIds",
      "outputs": [
        {
          "internalType": "string",
          "name": "",
          "type": "string"
        }
      ],
      "stateMutability": "view",
      "type": "function",
      "constant": true
    },
    {
      "inputs": [
        {
          "internalType": "string",
          "name": "_propertyId",
          "type": "string"
        },
        {
          "internalType": "uint256",
          "name": "_price",
          "type": "uint256"
        },
        {
          "internalType": "string",
          "name": "_location",
          "type": "string"
        }
      ],
      "name": "listProperty",
      "outputs": [],
      "stateMutability": "nonpayable",
      "type": "function"
    },
    {
      "inputs": [
        {
          "internalType": "string",
          "name": "_propertyId",
          "type": "string"
        }
      ],
      "name": "activateListing",
      "outputs": [],
      "stateMutability": "nonpayable",
      "type": "function"
    },
    {
      "inputs": [
        {
          "internalType": "string",
          "name": "_propertyId",
          "type": "string"
        }
      ],
      "name": "deactivateListing",
      "outputs": [],
      "stateMutability": "nonpayable",
      "type": "function"
    },
    {
      "inputs": [
        {
          "internalType": "string",
          "name": "_propertyId",
          "type": "string"
        }
      ],
      "name": "buyProperty",
      "outputs": [],
      "stateMutability": "payable",
      "type": "function",
      "payable": true
    },
    {
      "inputs": [
        {
          "internalType": "string",
          "name": "_propertyId",
          "type": "string"
        },
        {
          "internalType": "uint256",
          "name": "_newPrice",
          "type": "uint256"
        }
      ],
      "name": "updatePropertyPrice",
      "outputs": [],
      "stateMutability": "nonpayable",
      "type": "function"
    },
    {
      "inputs": [],
      "name": "getAllPropertyIds",
      "outputs": [
        {
          "internalType": "string[]",
          "name": "",
          "type": "string[]"
        }
      ],
      "stateMutability": "view",
      "type": "function",
      "constant": true
    },
    {
      "inputs": [
        {
          "internalType": "string",
          "name": "_propertyId",
          "type": "string"
        }
      ],
      "name": "getOwnershipHistory",
      "outputs": [
        {
          "internalType": "address[]",
          "name": "",
          "type": "address[]"
        }
      ],
      "stateMutability": "view",
      "type": "function",
      "constant": true
    },
    {
      "inputs": [
        {
          "internalType": "string",
          "name": "_propertyId",
          "type": "string"
        }
      ],
      "name": "getProperty",
      "outputs": [
        {
          "internalType": "string",
          "name": "",
          "type": "string"
        },
        {
          "internalType": "address",
          "name": "",
          "type": "address"
        },
        {
          "internalType": "uint256",
          "name": "",
          "type": "uint256"
        },
        {
          "internalType": "string",
          "name": "",
          "type": "string"
        },
        {
          "internalType": "bool",
          "name": "",
          "type": "bool"
        },
        {
          "internalType": "address[]",
          "name": "",
          "type": "address[]"
        }
      ],
      "stateMutability": "view",
      "type": "function",
      "constant": true
    }
  ],
  "bytecode": "0x608060405234801561001057600080fd5b50600080546001600160a01b03191633179055611763806100326000396000f3fe60806040526004361061009b5760003560e01c80638d3727c8116100645780638d3727c81461015a5780639be8f2a614610192578063ab331a34146101c3578063bfe06088146101f5578063d03b47f414610215578063ecbef1641461024257600080fd5b8062c966be146100a05780630f7cffeb146100d657806321c7d4ce146100f85780634ff69e831461011857806354dde14f1461013a575b600080fd5b3480156100ac57600080fd5b506100c06100bb366004611285565b610255565b6040516100cd919061130b565b60405180910390f35b3480156100e257600080fd5b506100f66100f1366004611285565b6102d5565b005b34801561010457600080fd5b506100f6610113366004611285565b610443565b34801561012457600080fd5b5061012d6105a3565b6040516100cd9190611372565b34801561014657600080fd5b506100f66101553660046113d4565b61067c565b34801561016657600080fd5b5060005461017a906001600160a01b031681565b6040516001600160a01b0390911681526020016100cd565b34801561019e57600080fd5b506101b26101ad366004611464565b610936565b6040516100cd959493929190611515565b3480156101cf57600080fd5b506101e36101de366004611285565b610a90565b6040516100cd96959493929190611565565b34801561020157600080fd5b506100f66102103660046115c9565b610caf565b34801561022157600080fd5b50610235610230366004611615565b610dce565b6040516100cd919061162e565b6100f6610250366004611285565b610e7a565b606060018383604051610269929190611641565b90815260408051918290036020908101832060050180548083028501830190935282845291908301828280156102c857602002820191906000526020600020905b81546001600160a01b031681526001909101906020018083116102aa575b5050505050905092915050565b336001600160a01b0316600183836040516102f1929190611641565b908152604051908190036020019020600101546001600160a01b0316146103695760405162461bcd60e51b815260206004820152602160248201527f4f6e6c79206f776e65722063616e2064656163746976617465206c697374696e6044820152606760f81b60648201526084015b60405180910390fd5b6001828260405161037b929190611641565b9081526040519081900360200190206004015460ff166103d05760405162461bcd60e51b815260206004820152601060248201526f416c726561647920696e61637469766560801b6044820152606401610360565b6000600183836040516103e4929190611641565b908152604051908190036020018120600401805492151560ff19909316929092179091557fa2db3740ba1ad287afc82ca7871be2c2d3b25ddc2e6fbb9626312eb975cbf3f990610437908490849061167a565b60405180910390a15050565b336001600160a01b03166001838360405161045f929190611641565b908152604051908190036020019020600101546001600160a01b0316146104c85760405162461bcd60e51b815260206004820152601f60248201527f4f6e6c79206f776e65722063616e206163746976617465206c697374696e67006044820152606401610360565b600182826040516104da929190611641565b9081526040519081900360200190206004015460ff161561053d5760405162461bcd60e51b815260206004820152601760248201527f50726f706572747920616c7265616479206163746976650000000000000000006044820152606401610360565b6001808383604051610550929190611641565b908152604051908190036020018120600401805492151560ff19909316929092179091557fd31325f2dc2843190e25dbab2032c44ecafcacd6ef47ffdc3e0a3c04fff3ce9590610437908490849061167a565b60606002805480602002602001604051908101604052809291908181526020016000905b828210156106735783829060005260206000200180546105e690611696565b80601f016020809104026020016040519081016040528092919081815260200182805461061290611696565b801561065f5780601f106106345761010080835404028352916020019161065f565b820191906000526020600020905b81548152906001019060200180831161064257829003601f168201915b5050505050815260200190600101906105c7565b50505050905090565b60006001600160a01b031660018686604051610699929190611641565b908152604051908190036020019020600101546001600160a01b0316146107025760405162461bcd60e51b815260206004820152601760248201527f50726f706572747920616c7265616479206578697374730000000000000000006044820152606401610360565b6040518060c0016040528086868080601f0160208091040260200160405190810160405280939291908181526020018383808284376000920191909152505050908252503360208083019190915260408083018790528051601f86018390048302810183019091528481526060909201919085908590819084018382808284376000920182905250938552505050602080830182905260408051928352908201815291820152516001906107b99088908890611641565b908152602001604051809103902060008201518160000190805190602001906107e39291906110da565b506020828101516001830180546001600160a01b0319166001600160a01b03909216919091179055604083015160028301556060830151805161082c92600385019201906110da565b50608082015160048201805460ff191691151591909117905560a0820151805161086091600584019160209091019061115e565b5090505060018585604051610876929190611641565b90815260405190819003602090810190912060050180546001818101835560009283529282200180546001600160a01b0319163317905560028054928301815590526108e5907f405787fa12a823e0f2b7631cc41b3ba8828b3321ca811111fa75cd3aa3bb5ace0186866111b3565b50336001600160a01b03167f5311917fca76f6053814157ff273a01527a501fc7281fbcb52ad926fe32d55ba86868686866040516109279594939291906116d0565b60405180910390a25050505050565b805160208183018101805160018252928201919093012091528054819061095c90611696565b80601f016020809104026020016040519081016040528092919081815260200182805461098890611696565b80156109d55780601f106109aa576101008083540402835291602001916109d5565b820191906000526020600020905b8154815290600101906020018083116109b857829003601f168201915b505050506001830154600284015460038501805494956001600160a01b039093169491935090610a0490611696565b80601f0160208091040260200160405190810160405280929190818152602001828054610a3090611696565b8015610a7d5780601f10610a5257610100808354040283529160200191610a7d565b820191906000526020600020905b815481529060010190602001808311610a6057829003601f168201915b5050506004909301549192505060ff1685565b6060600080606060006060600060018989604051610aaf929190611641565b90815260200160405180910390206040518060c0016040529081600082018054610ad890611696565b80601f0160208091040260200160405190810160405280929190818152602001828054610b0490611696565b8015610b515780601f10610b2657610100808354040283529160200191610b51565b820191906000526020600020905b815481529060010190602001808311610b3457829003601f168201915b505050918352505060018201546001600160a01b0316602082015260028201546040820152600382018054606090920191610b8b90611696565b80601f0160208091040260200160405190810160405280929190818152602001828054610bb790611696565b8015610c045780601f10610bd957610100808354040283529160200191610c04565b820191906000526020600020905b815481529060010190602001808311610be757829003601f168201915b5050509183525050600482015460ff1615156020808301919091526005830180546040805182850281018501825282815294019392830182828015610c7257602002820191906000526020600020905b81546001600160a01b03168152600190910190602001808311610c54575b5050509190925250508151602083015160408401516060850151608086015160a090960151939f929e50909c509a50929850965090945050505050565b600060018484604051610cc3929190611641565b90815260405190819003602001902060018101549091506001600160a01b0316610d295760405162461bcd60e51b8152602060048201526017602482015276141c9bdc195c9d1e48191bd95cc81b9bdd08195e1a5cdd604a1b6044820152606401610360565b60018101546001600160a01b03163314610d855760405162461bcd60e51b815260206004820152601b60248201527f4f6e6c79206f776e65722063616e2075706461746520707269636500000000006044820152606401610360565b600281018290556040517f159e83f4712ba2552e68be9d848e49bf6dd35c24f19564ffd523b6549450a2f490610dc090869086908690611709565b60405180910390a150505050565b60028181548110610dde57600080fd5b906000526020600020016000915090508054610df990611696565b80601f0160208091040260200160405190810160405280929190818152602001828054610e2590611696565b8015610e725780601f10610e4757610100808354040283529160200191610e72565b820191906000526020600020905b815481529060010190602001808311610e5557829003601f168201915b505050505081565b600060018383604051610e8e929190611641565b90815260405190819003602001902060018101549091506001600160a01b0316610ef45760405162461bcd60e51b8152602060048201526017602482015276141c9bdc195c9d1e48191bd95cc81b9bdd08195e1a5cdd604a1b6044820152606401610360565b600481015460ff16610f415760405162461bcd60e51b815260206004820152601660248201527550726f7065727479206973206e6f742061637469766560501b6044820152606401610360565b60018101546001600160a01b03163303610fa95760405162461bcd60e51b815260206004820152602360248201527f4f776e65722063616e6e6f7420627579207468656972206f776e2070726f706560448201526272747960e81b6064820152608401610360565b80600201543414610ffc5760405162461bcd60e51b815260206004820152601860248201527f496e636f7272656374207061796d656e7420616d6f756e7400000000000000006044820152606401610360565b600181810180543460028501819055336001600160a01b0319808416821790945560048601805460ff1916905560058601805495860181556000908152602081209095018054909416179092556040516001600160a01b039091169283926108fc811502929091818181858888f19350505050158015611080573d6000803e3d6000fd5b50336001600160a01b0316816001600160a01b03167f79c775aebafb12c090b3dd6dd5608d495ce27532e81a7d5ac3d97848a4974553868686600201546040516110cc93929190611709565b60405180910390a350505050565b8280546110e690611696565b90600052602060002090601f016020900481019282611108576000855561114e565b82601f1061112157805160ff191683800117855561114e565b8280016001018555821561114e579182015b8281111561114e578251825591602001919060010190611133565b5061115a929150611227565b5090565b82805482825590600052602060002090810192821561114e579160200282015b8281111561114e57825182546001600160a01b0319166001600160a01b0390911617825560209092019160019091019061117e565b8280546111bf90611696565b90600052602060002090601f0160209004810192826111e1576000855561114e565b82601f106111fa5782800160ff1982351617855561114e565b8280016001018555821561114e579182015b8281111561114e57823582559160200191906001019061120c565b5b8082111561115a5760008155600101611228565b60008083601f84011261124e57600080fd5b50813567ffffffffffffffff81111561126657600080fd5b60208301915083602082850101111561127e57600080fd5b9250929050565b6000806020838503121561129857600080fd5b823567ffffffffffffffff8111156112af57600080fd5b6112bb8582860161123c565b90969095509350505050565b600081518084526020808501945080840160005b838110156113005781516001600160a01b0316875295820195908201906001016112db565b509495945050505050565b60208152600061131e60208301846112c7565b9392505050565b6000815180845260005b8181101561134b5760208185018101518683018201520161132f565b8181111561135d576000602083870101525b50601f01601f19169290920160200192915050565b6000602080830181845280855180835260408601915060408160051b870101925083870160005b828110156113c757603f198886030184526113b5858351611325565b94509285019290850190600101611399565b5092979650505050505050565b6000806000806000606086880312156113ec57600080fd5b853567ffffffffffffffff8082111561140457600080fd5b61141089838a0161123c565b909750955060208801359450604088013591508082111561143057600080fd5b5061143d8882890161123c565b969995985093965092949392505050565b634e487b7160e01b600052604160045260246000fd5b60006020828403121561147657600080fd5b813567ffffffffffffffff8082111561148e57600080fd5b818401915084601f8301126114a257600080fd5b8135818111156114b4576114b461144e565b604051601f8201601f19908116603f011681019083821181831017156114dc576114dc61144e565b816040528281528760208487010111156114f557600080fd5b826020860160208301376000928101602001929092525095945050505050565b60a08152600061152860a0830188611325565b6001600160a01b03871660208401526040830186905282810360608401526115508186611325565b91505082151560808301529695505050505050565b60c08152600061157860c0830189611325565b6001600160a01b03881660208401526040830187905282810360608401526115a08187611325565b9050841515608084015282810360a08401526115bc81856112c7565b9998505050505050505050565b6000806000604084860312156115de57600080fd5b833567ffffffffffffffff8111156115f557600080fd5b6116018682870161123c565b909790965060209590950135949350505050565b60006020828403121561162757600080fd5b5035919050565b60208152600061131e6020830184611325565b8183823760009101908152919050565b81835281816020850137506000828201602090810191909152601f909101601f19169091010190565b60208152600061168e602083018486611651565b949350505050565b600181811c908216806116aa57607f821691505b6020821081036116ca57634e487b7160e01b600052602260045260246000fd5b50919050565b6060815260006116e4606083018789611651565b85602084015282810360408401526116fd818587611651565b98975050505050505050565b60408152600061171d604083018587611651565b905082602083015294935050505056fea2646970667358221220688956d6410cc85e82ef94038bbe5199d5031c149da4398e475671ccb666603264736f6c634300080d0033",
  "immutableReferences": {},
  "source": "\r\n// pragma solidity ^0.8.0;\r\n\r\n// contract DubaiRealEstateMarket {\r\n//     address public dlrAdmin;\r\n    \r\n//     enum ListingStatus { Pending, Active, Sold }\r\n//     enum BidStatus { Pending, Accepted, Rejected }\r\n\r\n//     struct Property {\r\n//         string propertyId;\r\n//         address owner;\r\n//         uint256 price;\r\n//         string location;\r\n//         ListingStatus status;\r\n//         address [] bidsHistroy;\r\n//         bool isActive;\r\n//         address[] ownershipHistory;\r\n//     }\r\n\r\n//     struct Bid {\r\n//         address bidder;\r\n//         string propertyId;\r\n//         uint256 amount;\r\n//         BidStatus status;\r\n//         uint256 timestamp;\r\n//     }\r\n\r\n//     // State variables\r\n//     mapping(string => Property) public properties;\r\n//     mapping(string => Bid[]) public propertyBids;\r\n//     string[] public propertyIds;\r\n//     uint256 public totalProperties;\r\n\r\n//     // Events\r\n//     event PropertyListed(string propertyId, address owner);\r\n//     event OwnershipTransferred(string propertyId, address previousOwner, address newOwner);\r\n//     event PropertyActivated(string propertyId);\r\n//     event BidAccepted(string propertyId, address newOwner);\r\n\r\n//     modifier onlyDLRAdmin() {\r\n//         require(msg.sender == dlrAdmin, \"Only DLR admin\");\r\n//         _;\r\n//     }\r\n\r\n//     modifier onlyActiveListing(string memory _propertyId) {\r\n//         require(properties[_propertyId].isActive, \"Listing not active\");\r\n//         _;\r\n//     }\r\n\r\n//     constructor() {\r\n//         dlrAdmin = msg.sender;\r\n//     }\r\n\r\n//     // Seller lists property\r\n//     function listProperty(\r\n//         string memory _propertyId,\r\n//         uint256 _price,\r\n//         string memory _location\r\n//     ) external {\r\n//         require(properties[_propertyId].owner == address(0), \"Property exists\");\r\n        \r\n//         properties[_propertyId] = Property({\r\n//             propertyId: _propertyId,\r\n//             owner: msg.sender,\r\n//             price: _price,\r\n//             location: _location,\r\n//             status: ListingStatus.Pending,\r\n//             isActive: false,\r\n//             ownershipHistory: new address[](0)\r\n//         });\r\n        \r\n//         properties[_propertyId].ownershipHistory.push(msg.sender);\r\n//         propertyIds.push(_propertyId);\r\n//         totalProperties++;\r\n//         emit PropertyListed(_propertyId, msg.sender);\r\n//     }\r\n\r\n//     // DLR activates listing\r\n//     function activateListing(string memory _propertyId) external onlyDLRAdmin {\r\n//         properties[_propertyId].isActive = true;\r\n//         properties[_propertyId].status = ListingStatus.Active;\r\n//         emit PropertyActivated(_propertyId);\r\n//     }\r\n\r\n//     // Buyer places bid\r\n//     function placeBid(string memory _propertyId) external payable onlyActiveListing(_propertyId) {\r\n//         require(msg.value > 0, \"Bid amount > 0\");\r\n        \r\n//         propertyBids[_propertyId].push(Bid({\r\n//             bidder: msg.sender,\r\n//             amount: msg.value,\r\n//             status: BidStatus.Pending,\r\n//             timestamp: block.timestamp\r\n//         }));\r\n//     }\r\n\r\n//     // Seller accepts bid\r\n//     function acceptBid(string memory _propertyId, uint256 bidIndex) external {\r\n//         require(properties[_propertyId].owner == msg.sender, \"Not owner\");\r\n//         Bid storage bid = propertyBids[_propertyId][bidIndex];\r\n        \r\n//         address previousOwner = properties[_propertyId].owner;\r\n//         address newOwner = bid.bidder;\r\n\r\n//         // Transfer ownership\r\n//         properties[_propertyId].owner = newOwner;\r\n//         properties[_propertyId].status = ListingStatus.Sold;\r\n//         properties[_propertyId].isActive = false;\r\n//         properties[_propertyId].ownershipHistory.push(newOwner);\r\n\r\n//         // Transfer funds\r\n//         payable(msg.sender).transfer(bid.amount);\r\n//         bid.status = BidStatus.Accepted;\r\n\r\n//         emit OwnershipTransferred(_propertyId, previousOwner, newOwner);\r\n//         emit BidAccepted(_propertyId, newOwner);\r\n//     }\r\n\r\n//     // Get all property IDs\r\n//     function getAllPropertyIds() public view returns (bytes32[] memory) {\r\n//         bytes32[] memory ids = new bytes32[](propertyIds.length);\r\n//         for (uint i = 0; i < propertyIds.length; i++) {\r\n//             ids[i] = stringToBytes32(propertyIds[i]);\r\n//         }\r\n//         return ids;\r\n//     }\r\n//     function stringToBytes32(string memory source) internal pure returns (bytes32 result) {\r\n//         bytes memory tempEmptyStringTest = bytes(source);\r\n//         if (tempEmptyStringTest.length == 0) {\r\n//             return 0x0;\r\n//         }\r\n//         // Assumes string is at most 32 bytes\r\n//         assembly {\r\n//             result := mload(add(source, 32))\r\n//         }\r\n//     }\r\n\r\n//     // Get paginated properties\r\n//     function getPaginatedProperties(uint256 start, uint256 end) public view \r\n//         returns (Property[] memory) \r\n//     {\r\n//         require(start < end && end <= propertyIds.length, \"Invalid range\");\r\n//         Property[] memory result = new Property[](end - start);\r\n//         for(uint256 i = start; i < end; i++) {\r\n//             result[i - start] = properties[propertyIds[i]];\r\n//         }\r\n//         return result;\r\n//     }\r\n\r\n//     // Get property details\r\n//     function getPropertyDetails(string memory _propertyId) public view returns (\r\n//         string memory id,\r\n//         address owner,\r\n//         uint256 price,\r\n//         string memory location,\r\n//         ListingStatus status,\r\n//         bool isActive,\r\n//         address[] memory history\r\n//     ) {\r\n//         Property storage p = properties[_propertyId];\r\n//         return (\r\n//             p.propertyId,\r\n//             p.owner,\r\n//             p.price,\r\n//             p.location,\r\n//             p.status,\r\n//             p.isActive,\r\n//             p.ownershipHistory\r\n//         );\r\n//     }\r\n\r\n//     // Get bids for property\r\n//     function getBids(string memory _propertyId) public view returns (\r\n//         string memory propertyId,\r\n//         Bid[] memory bids\r\n//     ) {\r\n//         return (_propertyId, propertyBids[_propertyId]);\r\n//     }\r\n\r\n//     // Get ownership history\r\n//     function getOwnershipHistory(string memory _propertyId) public view \r\n//         returns (address[] memory) \r\n//     {\r\n//         return properties[_propertyId].ownershipHistory;\r\n//     }\r\n// }\r\n\r\n\r\n\r\n// pragma solidity ^0.8.0;\r\n\r\n// contract DubaiRealEstateMarket {\r\n//     address public dlrAdmin;\r\n    \r\n//     enum ListingStatus { Pending, Active, Sold }\r\n//     enum BidStatus { Pending, Accepted, Rejected }\r\n\r\n//     struct Property {\r\n//         string propertyId;\r\n//         address owner;\r\n//         uint256 price;\r\n//         string location;\r\n//         ListingStatus status;\r\n//         bool isActive;\r\n//         address[] ownershipHistory;\r\n//         Bid[] bids; // Directly store bids in Property struct\r\n//     }\r\n\r\n//     struct Bid {\r\n//         address bidder;\r\n//         uint256 amount;\r\n//         BidStatus status;\r\n//         uint256 timestamp;\r\n//     }\r\n\r\n//     // State variables\r\n//     mapping(string => Property) public properties;\r\n//     string[] public propertyIds;\r\n//     uint256 public totalProperties;\r\n\r\n//     // Events\r\n//     event PropertyListed(string propertyId, address owner);\r\n//     event OwnershipTransferred(string propertyId, address previousOwner, address newOwner);\r\n//     event PropertyActivated(string propertyId);\r\n//     event BidPlaced(string propertyId, address bidder);\r\n//     event BidAccepted(string propertyId, address newOwner);\r\n\r\n//     modifier onlyDLRAdmin() {\r\n//         require(msg.sender == dlrAdmin, \"Only DLR admin\");\r\n//         _;\r\n//     }\r\n\r\n//     modifier onlyActiveListing(string memory _propertyId) {\r\n//         require(properties[_propertyId].isActive, \"Listing not active\");\r\n//         _;\r\n//     }\r\n\r\n//     constructor() {\r\n//         dlrAdmin = msg.sender;\r\n//     }\r\n\r\n//     // Seller lists property\r\n//     function listProperty(\r\n//         string memory _propertyId,\r\n//         uint256 _price,\r\n//         string memory _location\r\n//     ) external {\r\n//         require(properties[_propertyId].owner == address(0), \"Property exists\");\r\n        \r\n//         properties[_propertyId] = Property({\r\n//             propertyId: _propertyId,\r\n//             owner: msg.sender,\r\n//             price: _price,\r\n//             location: _location,\r\n//             status: ListingStatus.Pending,\r\n//             isActive: false,\r\n//             ownershipHistory: new address[](0),\r\n//             bids: new Bid[](0)\r\n//         });\r\n        \r\n//         properties[_propertyId].ownershipHistory.push(msg.sender);\r\n//         propertyIds.push(_propertyId);\r\n//         totalProperties++;\r\n//         emit PropertyListed(_propertyId, msg.sender);\r\n//     }\r\n\r\n//     // DLR activates listing\r\n//     function activateListing(string memory _propertyId) external onlyDLRAdmin {\r\n//         properties[_propertyId].isActive = true;\r\n//         properties[_propertyId].status = ListingStatus.Active;\r\n//         emit PropertyActivated(_propertyId);\r\n//     }\r\n\r\n//     // Buyer places bid\r\n//     function placeBid(string memory _propertyId) external payable onlyActiveListing(_propertyId) {\r\n//         require(msg.value > 0, \"Bid amount > 0\");\r\n        \r\n//         properties[_propertyId].bids.push(Bid({\r\n//             bidder: msg.sender,\r\n//             amount: msg.value,\r\n//             status: BidStatus.Pending,\r\n//             timestamp: block.timestamp\r\n//         }));\r\n        \r\n//         emit BidPlaced(_propertyId, msg.sender);\r\n//     }\r\n\r\n//     // Seller accepts bid\r\n//     function acceptBid(string memory _propertyId, uint256 bidIndex) external {\r\n//         require(properties[_propertyId].owner == msg.sender, \"Not owner\");\r\n//         Bid storage bid = properties[_propertyId].bids[bidIndex];\r\n        \r\n//         address previousOwner = properties[_propertyId].owner;\r\n//         address newOwner = bid.bidder;\r\n\r\n//         // Transfer ownership\r\n//         properties[_propertyId].owner = newOwner;\r\n//         properties[_propertyId].status = ListingStatus.Sold;\r\n//         properties[_propertyId].isActive = false;\r\n//         properties[_propertyId].ownershipHistory.push(newOwner);\r\n//         bid.status = BidStatus.Accepted;\r\n\r\n//         // Transfer funds\r\n//         payable(msg.sender).transfer(bid.amount);\r\n\r\n//         emit OwnershipTransferred(_propertyId, previousOwner, newOwner);\r\n//         emit BidAccepted(_propertyId, newOwner);\r\n//     }\r\n\r\n//     // Get all property IDs\r\n//     function getAllPropertyIds() public view returns (string[] memory) {\r\n//         return propertyIds;\r\n//     }\r\n\r\n//     // Get active listings\r\n//     function getActiveListings() public view returns (Property[] memory) {\r\n//         Property[] memory active = new Property[](propertyIds.length);\r\n//         uint256 count = 0;\r\n        \r\n//         for(uint256 i = 0; i < propertyIds.length; i++) {\r\n//             if(properties[propertyIds[i]].isActive) {\r\n//                 active[count] = properties[propertyIds[i]];\r\n//                 count++;\r\n//             }\r\n//         }\r\n        \r\n//         // Resize array to actual active count\r\n//         Property[] memory result = new Property[](count);\r\n//         for(uint256 i = 0; i < count; i++) {\r\n//             result[i] = active[i];\r\n//         }\r\n        \r\n//         return result;\r\n//     }\r\n\r\n//     // Get property details\r\n//     function getPropertyDetails(string memory _propertyId) public view returns (\r\n//         string memory id,\r\n//         address owner,\r\n//         uint256 price,\r\n//         string memory location,\r\n//         ListingStatus status,\r\n//         bool isActive,\r\n//         address[] memory history,\r\n//         Bid[] memory bids\r\n//     ) {\r\n//         Property storage p = properties[_propertyId];\r\n//         return (\r\n//             p.propertyId,\r\n//             p.owner,\r\n//             p.price,\r\n//             p.location,\r\n//             p.status,\r\n//             p.isActive,\r\n//             p.ownershipHistory,\r\n//             p.bids\r\n//         );\r\n//     }\r\n// }\r\n\r\n\r\n// pragma solidity ^0.8.13; // Update from 0.8.0 to 0.8.21\r\n\r\n// contract DubaiRealEstateMarket {\r\n//     address public dlrAdmin;\r\n    \r\n//     enum ListingStatus { Pending, Active, Sold }\r\n//     enum BidStatus { Pending, Accepted, Rejected }\r\n\r\n//     struct Property {\r\n//         string propertyId;\r\n//         address owner;\r\n//         uint256 price;\r\n//         string location;\r\n//         ListingStatus status;\r\n//         bool isActive;\r\n//         address[] ownershipHistory;\r\n//     }\r\n\r\n//     struct Bid {\r\n//         address bidder;\r\n//         uint256 amount;\r\n//         BidStatus status;\r\n//         uint256 timestamp;\r\n//     }\r\n\r\n//     mapping(string => Property) public properties;\r\n//     mapping(string => Bid[]) public propertyBids; // Separate mapping for bids\r\n//     string[] public propertyIds;\r\n\r\n//     event PropertyListed(string propertyId, uint256 price, string location, address owner);\r\n//     event OwnershipTransferred(string propertyId, address previousOwner, address newOwner);\r\n//     event PropertyActivated(string propertyId);\r\n//     event BidPlaced(string propertyId, address bidder);\r\n//     event BidAccepted(string propertyId, address newOwner);\r\n\r\n//     constructor() {\r\n//         dlrAdmin = msg.sender;\r\n//     }\r\n\r\n//     function listProperty(\r\n//         string calldata _propertyId,\r\n//         uint256 _price,\r\n//         string calldata _location\r\n//     ) external {\r\n//         require(properties[_propertyId].owner == address(0), \"Property exists\");\r\n        \r\n//         properties[_propertyId] = Property({\r\n//             propertyId: _propertyId,\r\n//             owner: msg.sender,\r\n//             price: _price,\r\n//             location: _location,\r\n//             status: ListingStatus.Pending,\r\n//             isActive: false,\r\n//             ownershipHistory: new address[](0)\r\n//         });\r\n        \r\n//         properties[_propertyId].ownershipHistory.push(msg.sender);\r\n//         propertyIds.push(_propertyId);\r\n//         emit PropertyListed(_propertyId,_price,_location, msg.sender);\r\n//     }\r\n\r\n// function activateListing(string calldata _propertyId) external {\r\n//     require(msg.sender == dlrAdmin, \"Only DLR admin\"); // Changed from \"Only admin\"\r\n//     properties[_propertyId].isActive = true;\r\n//     properties[_propertyId].status = ListingStatus.Active;\r\n//     emit PropertyActivated(_propertyId);\r\n// }\r\n\r\n//     function placeBid(string calldata _propertyId) external payable {\r\n//         require(properties[_propertyId].isActive, \"Listing inactive\");\r\n//         require(msg.value > 0, \"Bid amount > 0\");\r\n        \r\n//         propertyBids[_propertyId].push(Bid({\r\n//             bidder: msg.sender,\r\n//             amount: msg.value,\r\n//             status: BidStatus.Pending,\r\n//             timestamp: block.timestamp\r\n//         }));\r\n//         emit BidPlaced(_propertyId, msg.sender);\r\n//     }\r\n\r\n//     function acceptBid(string calldata _propertyId, uint256 bidIndex) external {\r\n//         require(properties[_propertyId].owner == msg.sender, \"Not owner\");\r\n//         Bid storage bid = propertyBids[_propertyId][bidIndex];\r\n        \r\n//         address previousOwner = msg.sender;\r\n//         address newOwner = bid.bidder;\r\n\r\n//         properties[_propertyId].owner = newOwner;\r\n//         properties[_propertyId].status = ListingStatus.Sold;\r\n//         properties[_propertyId].isActive = false;\r\n//         properties[_propertyId].ownershipHistory.push(newOwner);\r\n//         bid.status = BidStatus.Accepted;\r\n        \r\n//         payable(msg.sender).transfer(bid.amount);\r\n//         emit OwnershipTransferred(_propertyId, previousOwner, newOwner);\r\n//         emit BidAccepted(_propertyId, newOwner);\r\n//     }\r\n\r\n//     // Additional helper functions\r\n//     function getBids(string calldata _propertyId) public view returns (Bid[] memory) {\r\n//         return propertyBids[_propertyId];\r\n//     }\r\n//     function getOwnershipHistory(string calldata _propertyId) public view returns (address[] memory) {\r\n//         return properties[_propertyId].ownershipHistory;\r\n//     }\r\n\r\n//     function getAllPropertyIds() public view returns (string[] memory) {\r\n//         return propertyIds;\r\n//     }\r\n// }\r\n\r\n\r\n\r\n// SPDX-License-Identifier: MIT\r\n\r\n// Contract need to be compiled and deployed again Changes made in the contract\r\n// price being emitted in the event PropertyListed\r\npragma solidity ^0.8.13;\r\n\r\ncontract DubaiRealEstateMarket {\r\n    address public dlrOwner; // Just as contract owner (optional for future use)\r\n\r\n    struct Property {\r\n        string propertyId;\r\n        address owner;\r\n        uint256 price;\r\n        string location;\r\n        bool isActive;\r\n        address[] ownershipHistory;\r\n    }\r\n\r\n    mapping(string => Property) public properties;\r\n    string[] public propertyIds;\r\n\r\n    // Events\r\n    event PropertyListed(string propertyId, uint256 price, string location, address indexed owner);\r\n    event OwnershipTransferred(string propertyId, uint256 price, address indexed previousOwner, address indexed newOwner);\r\n    event PropertyActivated(string propertyId);\r\n    event PropertyDeactivated(string propertyId);\r\n    event PropertySold(string propertyId, address indexed newOwner);\r\nevent PriceUpdated(string _propertyId, uint256 _newPrice);\r\n\r\n\r\n    constructor() {\r\n        dlrOwner = msg.sender;\r\n    }\r\n\r\n    // Function to list a new property\r\n    function listProperty(\r\n        string calldata _propertyId,\r\n        uint256 _price,\r\n        string calldata _location\r\n    ) external {\r\n        require(properties[_propertyId].owner == address(0), \"Property already exists\");\r\n\r\n        properties[_propertyId] = Property({\r\n            propertyId: _propertyId,\r\n            owner: msg.sender,\r\n            price: _price,\r\n            location: _location,\r\n            isActive: false,\r\n            ownershipHistory: new address[](0)\r\n            });\r\n\r\n        properties[_propertyId].ownershipHistory.push(msg.sender);\r\n        propertyIds.push(_propertyId);\r\n\r\n        emit PropertyListed(_propertyId, _price, _location, msg.sender);\r\n    }\r\n\r\n    // Function to activate listing by the property owner\r\n   function activateListing(string calldata _propertyId) external {\r\n    if (properties[_propertyId].owner != msg.sender) \r\n        revert(\"Only owner can activate listing\");\r\n    if (properties[_propertyId].isActive) \r\n        revert(\"Property already active\");\r\n    \r\n    properties[_propertyId].isActive = true;\r\n    emit PropertyActivated(_propertyId);\r\n}\r\n\r\n    // Function to deactivate listing by the property owner\r\n    function deactivateListing(string calldata _propertyId) external {\r\n        require(properties[_propertyId].owner == msg.sender, \"Only owner can deactivate listing\");\r\n        require(properties[_propertyId].isActive, \"Already inactive\");\r\n\r\n        properties[_propertyId].isActive = false;\r\n        emit PropertyDeactivated(_propertyId);\r\n    }\r\n\r\n    // Direct purchase function - buyer can buy directly\r\nfunction buyProperty(string calldata _propertyId) external payable {\r\n    Property storage property = properties[_propertyId];\r\n\r\n    if (property.owner == address(0))\r\n        revert(\"Property does not exist\");\r\n    if (!property.isActive)\r\n        revert(\"Property is not active\");\r\n    if (msg.sender == property.owner)\r\n        revert(\"Owner cannot buy their own property\");\r\n    if (msg.value != property.price)\r\n        revert(\"Incorrect payment amount\");\r\n\r\n    address previousOwner = property.owner;\r\n    property.price = msg.value;\r\n    property.owner = msg.sender;\r\n    property.isActive = false; // Mark as sold\r\n    property.ownershipHistory.push(msg.sender);\r\n\r\n    payable(previousOwner).transfer(msg.value); // Transfer amount to the seller\r\n\r\n    emit OwnershipTransferred(_propertyId, property.price, previousOwner, msg.sender);\r\n}\r\n\r\n\r\n function updatePropertyPrice(\r\n    string calldata _propertyId, \r\n    uint256 _newPrice\r\n) external {\r\n    Property storage property = properties[_propertyId];\r\n    \r\n    if (property.owner == address(0)) \r\n        revert(\"Property does not exist\");\r\n    if (msg.sender != property.owner) \r\n        revert(\"Only owner can update price\");\r\n    \r\n    property.price = _newPrice;\r\n    emit PriceUpdated(_propertyId, _newPrice);\r\n}\r\n        \r\n    // View all property IDs\r\n    function getAllPropertyIds() public view returns (string[] memory) {\r\n        return propertyIds;\r\n    }\r\n\r\n    // View ownership history of a property\r\n    function getOwnershipHistory(string calldata _propertyId) public view returns (address[] memory) {\r\n        return properties[_propertyId].ownershipHistory;\r\n    }\r\n\r\n    // View a property by ID\r\n    function getProperty(string calldata _propertyId) public view returns (\r\n        string memory,\r\n        address,\r\n        uint256,\r\n        string memory,\r\n        bool,\r\n        address[] memory\r\n    ) {\r\n        Property memory p = properties[_propertyId];\r\n        return (\r\n            p.propertyId,\r\n            p.owner,\r\n            p.price,\r\n            p.location,\r\n            p.isActive,\r\n            p.ownershipHistory\r\n        );\r\n    }\r\n}\r\n",
  "sourcePath": "C:\\Code\\blockChain\\contracts\\RealEstate.sol",
  "compiler": {
    "name": "solc",
    "version": "0.8.13+commit.abaa5c0e.Emscripten.clang"
  },
  "schemaVersion": "3.4.16",
  "updatedAt": "2025-03-25T11:03:08.209Z",
  "networkType": "ethereum",
  "devdoc": {
    "kind": "dev",
    "methods": {},
    "version": 1
  },
  "userdoc": {
    "kind": "user",
    "methods": {},
    "version": 1
  }
}